{
  "_format": "hh-sol-artifact-1",
  "contractName": "RedPacket",
  "sourceName": "contracts/RedPacket.sol",
  "abi": [
    {
      "inputs": [],
      "name": "AlreadyClaimed",
      "type": "error"
    },
    {
      "inputs": [],
      "name": "ECDSAInvalidSignature",
      "type": "error"
    },
    {
      "inputs": [
        {
          "internalType": "uint256",
          "name": "length",
          "type": "uint256"
        }
      ],
      "name": "ECDSAInvalidSignatureLength",
      "type": "error"
    },
    {
      "inputs": [
        {
          "internalType": "bytes32",
          "name": "s",
          "type": "bytes32"
        }
      ],
      "name": "ECDSAInvalidSignatureS",
      "type": "error"
    },
    {
      "inputs": [],
      "name": "InsufficientAllowance",
      "type": "error"
    },
    {
      "inputs": [],
      "name": "InvalidAmount",
      "type": "error"
    },
    {
      "inputs": [],
      "name": "InvalidCount",
      "type": "error"
    },
    {
      "inputs": [],
      "name": "InvalidSignature",
      "type": "error"
    },
    {
      "inputs": [],
      "name": "NotEligible",
      "type": "error"
    },
    {
      "inputs": [],
      "name": "PacketEmpty",
      "type": "error"
    },
    {
      "inputs": [],
      "name": "PacketExpired",
      "type": "error"
    },
    {
      "inputs": [],
      "name": "PacketNotExpired",
      "type": "error"
    },
    {
      "inputs": [],
      "name": "ReentrancyGuardReentrantCall",
      "type": "error"
    },
    {
      "inputs": [
        {
          "internalType": "address",
          "name": "token",
          "type": "address"
        }
      ],
      "name": "SafeERC20FailedOperation",
      "type": "error"
    },
    {
      "inputs": [],
      "name": "WrongAnswer",
      "type": "error"
    },
    {
      "anonymous": false,
      "inputs": [
        {
          "indexed": true,
          "internalType": "bytes32",
          "name": "packetId",
          "type": "bytes32"
        },
        {
          "indexed": true,
          "internalType": "address",
          "name": "claimer",
          "type": "address"
        },
        {
          "indexed": false,
          "internalType": "uint256",
          "name": "amount",
          "type": "uint256"
        }
      ],
      "name": "Claimed",
      "type": "event"
    },
    {
      "anonymous": false,
      "inputs": [
        {
          "indexed": true,
          "internalType": "bytes32",
          "name": "packetId",
          "type": "bytes32"
        },
        {
          "indexed": true,
          "internalType": "address",
          "name": "creator",
          "type": "address"
        },
        {
          "indexed": true,
          "internalType": "address",
          "name": "restrictedTo",
          "type": "address"
        },
        {
          "indexed": false,
          "internalType": "address",
          "name": "token",
          "type": "address"
        },
        {
          "indexed": false,
          "internalType": "uint256",
          "name": "totalAmount",
          "type": "uint256"
        },
        {
          "indexed": false,
          "internalType": "uint256",
          "name": "count",
          "type": "uint256"
        },
        {
          "indexed": false,
          "internalType": "uint256",
          "name": "expiresAt",
          "type": "uint256"
        },
        {
          "indexed": false,
          "internalType": "bool",
          "name": "hasQuestion",
          "type": "bool"
        },
        {
          "indexed": false,
          "internalType": "string",
          "name": "message",
          "type": "string"
        }
      ],
      "name": "PacketCreated",
      "type": "event"
    },
    {
      "anonymous": false,
      "inputs": [
        {
          "indexed": true,
          "internalType": "bytes32",
          "name": "packetId",
          "type": "bytes32"
        },
        {
          "indexed": true,
          "internalType": "address",
          "name": "creator",
          "type": "address"
        },
        {
          "indexed": false,
          "internalType": "uint256",
          "name": "amount",
          "type": "uint256"
        }
      ],
      "name": "Refunded",
      "type": "event"
    },
    {
      "inputs": [
        {
          "internalType": "bytes32",
          "name": "_packetId",
          "type": "bytes32"
        },
        {
          "internalType": "bytes",
          "name": "_signature",
          "type": "bytes"
        },
        {
          "internalType": "string",
          "name": "_answer",
          "type": "string"
        }
      ],
      "name": "claim",
      "outputs": [],
      "stateMutability": "nonpayable",
      "type": "function"
    },
    {
      "inputs": [
        {
          "internalType": "address",
          "name": "_token",
          "type": "address"
        },
        {
          "internalType": "uint256",
          "name": "_totalAmount",
          "type": "uint256"
        },
        {
          "internalType": "uint256",
          "name": "_count",
          "type": "uint256"
        },
        {
          "internalType": "bool",
          "name": "_isRandom",
          "type": "bool"
        },
        {
          "internalType": "address",
          "name": "_signerPtr",
          "type": "address"
        },
        {
          "internalType": "address",
          "name": "_restrictedTo",
          "type": "address"
        },
        {
          "internalType": "uint256",
          "name": "_duration",
          "type": "uint256"
        },
        {
          "internalType": "string",
          "name": "_message",
          "type": "string"
        },
        {
          "internalType": "bytes32",
          "name": "_answerHash",
          "type": "bytes32"
        }
      ],
      "name": "createPacket",
      "outputs": [
        {
          "internalType": "bytes32",
          "name": "",
          "type": "bytes32"
        }
      ],
      "stateMutability": "nonpayable",
      "type": "function"
    },
    {
      "inputs": [
        {
          "internalType": "bytes32",
          "name": "",
          "type": "bytes32"
        },
        {
          "internalType": "address",
          "name": "",
          "type": "address"
        }
      ],
      "name": "hasClaimed",
      "outputs": [
        {
          "internalType": "bool",
          "name": "",
          "type": "bool"
        }
      ],
      "stateMutability": "view",
      "type": "function"
    },
    {
      "inputs": [
        {
          "internalType": "bytes32",
          "name": "",
          "type": "bytes32"
        }
      ],
      "name": "packets",
      "outputs": [
        {
          "internalType": "address",
          "name": "creator",
          "type": "address"
        },
        {
          "internalType": "address",
          "name": "token",
          "type": "address"
        },
        {
          "internalType": "uint256",
          "name": "balance",
          "type": "uint256"
        },
        {
          "internalType": "uint256",
          "name": "initialBalance",
          "type": "uint256"
        },
        {
          "internalType": "uint256",
          "name": "count",
          "type": "uint256"
        },
        {
          "internalType": "uint256",
          "name": "initialCount",
          "type": "uint256"
        },
        {
          "internalType": "bool",
          "name": "isRandom",
          "type": "bool"
        },
        {
          "internalType": "uint256",
          "name": "expiresAt",
          "type": "uint256"
        },
        {
          "internalType": "address",
          "name": "signerPtr",
          "type": "address"
        },
        {
          "internalType": "address",
          "name": "restrictedTo",
          "type": "address"
        },
        {
          "internalType": "bytes32",
          "name": "answerHash",
          "type": "bytes32"
        },
        {
          "internalType": "bool",
          "name": "hasQuestion",
          "type": "bool"
        },
        {
          "internalType": "string",
          "name": "message",
          "type": "string"
        }
      ],
      "stateMutability": "view",
      "type": "function"
    },
    {
      "inputs": [
        {
          "internalType": "bytes32",
          "name": "_packetId",
          "type": "bytes32"
        }
      ],
      "name": "refund",
      "outputs": [],
      "stateMutability": "nonpayable",
      "type": "function"
    }
  ],
  "bytecode": "0x6080806040523461001b57600160005561113f90816100218239f35b600080fdfe6080604052600436101561001257600080fd5b60003560e01c80637249fbb614610cd85780637d8b4e0c14610b4157806392a42d1d14610aef578063ac04e1db146105455763dfb6d2661461005357600080fd5b346105405760603660031901126105405760243567ffffffffffffffff811161054057610084903690600401610e2d565b60443567ffffffffffffffff8111610540576100a4903690600401610e2d565b9190926100af610f17565b60043560005260016020526040600020926007840154421161052e5760048401549485158015610522575b61051057600435600052600260205260406000203360005260205260ff604060002054166104fe5760098501546001600160a01b031691826104e4575b60ff600b8701541661039b575b50508015159080610391575b50156102bd575b5050600182036101f7576002810154915b60001981019081116101e15781839160046101aa9401556002810161016e838254610f44565b905560043560005260026020526040600020336000526020526040600020600160ff1982541617905533906001808060a01b0391015416610f51565b60405190815233907f0508a8b4117d9a7b3d8f5895f6413e61b4f9a2df35afbfb41e78d0ecfff1843f602060043592a36001600055005b634e487b7160e01b600052601160045260246000fd5b600681015460ff1661021757610211826002830154610f3a565b91610148565b60028101546102268382610f3a565b60405160208101904282523360601b60408201528560548201526054815261024d81610dcc565b5190208160011b91808304600214901517156101e15781156102a75706806102a157506001905b80821015610284575b5091610148565b905060001983018381116101e15761029b91610f44565b3861027d565b90610274565b634e487b7160e01b600052601260045260246000fd5b6040519160043560208401523360601b60408401526034835282606081011067ffffffffffffffff60608501111761037b5761033c6103429284606061034b9601604052602081519101207f19457468657265756d205369676e6564204d6573736167653a0a333200000000600052601c52603c600020923691610e84565b90610f91565b9092919261105d565b60088201546001600160a01b03908116911603610369573880610137565b604051638baa579f60e01b8152600490fd5b634e487b7160e01b600052604160045260246000fd5b9050331438610130565b906103ac9196939592963691610e84565b928351946103b986610e68565b956103c76040519788610de8565b8087526103d6601f1991610e68565b0136602088013760005b855181101561048c5760416103f582886110e2565b5160f81c101580610474575b1561044c57602061041282886110e2565b5160f81c0160ff81116101e15760f81b6001600160f81b03191660001a61043982896110e2565b535b60001981146101e1576001016103e0565b6001600160f81b031961045f82886110e2565b511660001a61046e82896110e2565b5361043b565b50605a61048182886110e2565b5160f81c1115610401565b50929591949093506040516104be602082816104b18183019687815193849201610e0a565b8101038084520182610de8565b519020600a850154036104d2573880610124565b604051630beb144560e21b8152600490fd5b338314610117575b604051637c75aa6f60e11b8152600490fd5b604051630c8d9eab60e31b8152600490fd5b604051635cc4167360e01b8152600490fd5b506002850154156100da565b60405163012f6c4960e21b8152600490fd5b600080fd5b3461054057610120366003190112610540576004356001600160a01b0381169003610540576064358015158103610540576084356001600160a01b03811690036105405760a4356001600160a01b03811690036105405760e43567ffffffffffffffff8111610540576105bc903690600401610e2d565b906105c5610f17565b60243515610acb5760443515610add576004356001600160a01b031615610acb57604051636eb1769f60e11b815233600482015230602482015260208160448160018060a01b03600435165afa908115610abf57600091610a8d575b5060243511610a7b576040516323b872dd60e01b60208201523360248201523060448201526024356064820152606481528060a081011067ffffffffffffffff60a08301111761037b5760a08101604052610687906004356001600160a01b0316610ebb565b6040513360601b60208201524260348201526bffffffffffffffffffffffff198060043560601b166054830152602435606883015260443560888301528060843560601b1660a883015260a43560601b1660bc82015260b081528060e081011067ffffffffffffffff60e08301111761037b5760e08101604052602081519101209161071560c43542610e5b565b60405194856101a081011067ffffffffffffffff6101a08801111761037b576101a0860160409081523387526001600160a01b036004358116602089015260243591880182905260608801919091526044356080880181905260a088015290151560c087015260e0860191909152608435811661010086015260a4351661012085015261010435610140850181905215156101608501526107b7368284610e84565b61018085015282600052600160205261018060406000209460018060a01b038151166bffffffffffffffffffffffff60a01b90818854161787556001870160018060a01b036020840151168282541617905560408201516002880155606082015160038801556080820151600488015560a0820151600588015561085060c08301511515600689019060ff801983541691151516179055565b60e082015160078801556101008201516008880180546001600160a01b03928316908416179055610120830151600989018054919092169216919091179055610140810151600a870155610160810151600b8701805460ff191691151560ff16919091179055015193845167ffffffffffffffff811161037b576108d7600c830154610d92565b95601f8711610a34575b602096508690601f83116001146109c657600c9291600091836109bb575b50508160011b916000199060031b1c1916179101555b8061092260c43542610e5b565b926040519360018060a01b036004351685526024358786015260443560408601526060850152610104351515608085015260c060a08501528160c085015260e0840137600060e08284010152827fc7de4a2626b5e2f3361e3d5d66391e83f010ae9e5b02e1c1e26db80e94b86bf860018060a01b0360a435169360e0813395601f80199101168101030190a46001600055604051908152f35b0151905088806108ff565b90600c8401600052876000209160005b601f1985168110610a1d5750918391600193600c95601f19811610610a04575b505050811b01910155610915565b015160001960f88460031b161c191690558880806109f6565b9192896001819286850151815501940192016109d6565b600c83016000526020600020601f830160051c810160208410610a74575b601f890160051c82018110610a685750506108e1565b60008155600101610a52565b5080610a52565b6040516313be252b60e01b8152600490fd5b90506020813d602011610ab7575b81610aa860209383610de8565b81010312610540575184610621565b3d9150610a9b565b6040513d6000823e3d90fd5b60405163162908e360e11b8152600490fd5b604051631a49577b60e11b8152600490fd5b34610540576040366003190112610540576024356001600160a01b03811690819003610540576004356000526002602052604060002090600052602052602060ff604060002054166040519015158152f35b34610540576020366003190112610540576004356000526001602052604060002060018060a01b0390818154169180600183015416906002830154906003840154906004850154600586015460ff600688015416906007880154928460088a0154169460098a01541695600a8a01549760ff600b8c015416996040519b8c600c6000920191825492610bd284610d92565b8084529360018116908115610cb65750600114610c70575b50610bf79250038d610de8565b6040519c8d5260208d015260408c015260608b015260808a015260a0890152151560c088015260e08701526101008601526101208501526101408401521515610160830152816101a08061018083015282518091830152610c62816101c09460208686019101610e0a565b601f01601f19168101030190f35b90506000929192526020600020906000915b818310610c9b575050906020610bf79282010138610bea565b80602092948385600194549201015201910190918e92610c82565b905060209250610bf794915060ff191682840152151560051b82010138610bea565b3461054057602036600319011261054057600435610cf4610f17565b80600052600160205260406000209060018060a01b0380835416908133036104ec576007840154421115610d80576002840190815494851561051057610d6f867ff552ca82e113ac3c539c3d617f29fcd19c172a0c75dad017555c9e109f7fe183956000602096556000600485015584600185015416610f51565b541693604051908152a36001600055005b6040516302271ee360e61b8152600490fd5b90600182811c92168015610dc2575b6020831014610dac57565b634e487b7160e01b600052602260045260246000fd5b91607f1691610da1565b6080810190811067ffffffffffffffff82111761037b57604052565b90601f8019910116810190811067ffffffffffffffff82111761037b57604052565b60005b838110610e1d5750506000910152565b8181015183820152602001610e0d565b9181601f840112156105405782359167ffffffffffffffff8311610540576020838186019501011161054057565b919082018092116101e157565b67ffffffffffffffff811161037b57601f01601f191660200190565b929192610e9082610e68565b91610e9e6040519384610de8565b829481845281830111610540578281602093846000960137010152565b906000602091828151910182855af115610abf576000513d610f0e57506001600160a01b0381163b155b610eec5750565b604051635274afe760e01b81526001600160a01b039091166004820152602490fd5b60011415610ee5565b600260005414610f28576002600055565b604051633ee5aeb560e01b8152600490fd5b81156102a7570490565b919082039182116101e157565b60405163a9059cbb60e01b60208201526001600160a01b039092166024830152604480830193909352918152610f8f91610f8a82610dcc565b610ebb565b565b8151919060418303610fc257610fbb92506020820151906060604084015193015160001a90610fcd565b9192909190565b505060009160029190565b91907f7fffffffffffffffffffffffffffffff5d576e7357a4501ddfe92f46681b20a0841161105157926020929160ff608095604051948552168484015260408301526060820152600092839182805260015afa156110455780516001600160a01b0381161561103c57918190565b50809160019190565b604051903d90823e3d90fd5b50505060009160039190565b60048110156110cc578061106f575050565b600181036110895760405163f645eedf60e01b8152600490fd5b600281036110aa5760405163fce698f760e01b815260048101839052602490fd5b6003146110b45750565b602490604051906335e2f38360e21b82526004820152fd5b634e487b7160e01b600052602160045260246000fd5b9081518110156110f3570160200190565b634e487b7160e01b600052603260045260246000fdfea2646970667358221220869eb1dd7755f3f72278e21d7ee06d25ea4887606f8cb324d1d77a1112f4349f64736f6c63430008140033",
  "linkReferences": {},
  "deployedLinkReferences": {}
}